:020000040000FA
:2000000000000420291B0000511B0000991C0000551B0000571B0000591B00005B1B00008B
:200020000000000000000000000000005D1B00005F1B000000000000611B0000631B0000D4
:20004000651B0000651B000000000000651B000000000000C92F0000000000000000000028
:200060001D360000651B0000651B0000651B0000651B0000D92D0000651B000091660000B0
:20008000651B0000651B00000000000000000000B5300000651B00000000000000000000FB
:2000A000F1380000651B0000651B0000651B0000651B0000651B0000651B0000651B000097
:2000C000651B0000651B0000651B0000651B0000651B000000000000651B00000000000020
:2000E000651B000000000000651B0000651B000000000000651B000000000000651B000080
:20010000000000000000000000000000651B0000651B000000000000651B000075370000B3
:2001200000000000651B00000000000000000000000000000000000000000000000000003F
:2001400000000000000000000000000000000000651B00000000000000000000000000001F
:2001600000000000000000000000000000000000000000000000000000000000000000007F
:2001800000000000000000000000000000000000000000000000000000000000000000005F
:2001A00000000000000000000000000000000000000000000000000000000000000000003F
:2001C00000000000000000000000000000000000000000000000000000000000000000001F
:2001E0000000000000000000000000000000000000000000000000000000000000000000FF
:200200000000000000000000000000000000000000000000000000000000000000000000DE
:200220000000000000000000000000000000000000000000000000000000000000000000BE
:2002400000000000000000000000000000000000000000000000000000000000000000009E
:2002600000000000000000000000000000000000000000000000000000000000000000007E
:2002800000000000000000000000000000000000000000000000000000000000000000005E
:2002A00000000000000000000000000000000000000000000000000000000000000000003E
:2002C00000000000000000000000000000000000000000000000000000000000000000001E
:2002E0000000000000000000000000000000000000000000000000000000000000000000FE
:200300000000000000000000000000000000000000000000000000000000000000000000DD
:200320000000000000000000000000000000000000000000000000000000000000000000BD
:2003400000000000000000000000000000000000000000000000000000000000000000009D
:2003600000000000000000000000000000000000000000000000000000000000000000007D
:2003800000000000000000000000000000000000000000000000000000000000000000005D
:2003A00000000000000000000000000000000000000000000000000000000000000000003D
:2003C00000000000000000000000000000000000000000000000000000000000000000001D
:2003E0000000000000000000000000000000000000000000000000000000000000000000FD
:2004000038B5124B04461D68AA6B1AB10023C2E9044338BD18200BF0FFFA0246A86378B131
:200420000B480C4B0C49C2E900030B2301209160002193810023C2E90401C2E9044338BDE0
:20044000064B422106480BF0A1FA00BF140300200E33CDAB34126DE6ECDE05007CD8000099
:2004600094D800001C4B10B51C68A26B8AB113691A4954691A4803FB01F100FB0411A3FB7C
:200480000030013341EB000121F00040C2E9043110BD18200BF0C0FA0246A06388B1114CFF
:2004A000114B0E481149C2E900430B239160014693810F4B9FED067B82ED047BC2E9043193
:2004C00010BD0C4B4E210C480BF060FAAFF300800100000000000000140300202DF45158BC
:2004E0002D7F954C0E33CDAB34126DE6ECDE05002E7F954C7CD8000094D800000348044B66
:20050000834202D0034B03B118477047840300208403002000000000064B0749C91A8910C1
:2005200048BF0131491003D0044B0BB101481847704700BF840300208403002000000000DF
:2005400010B5064C237843B9FFF7D8FF044B13B10448AFF300800123237010BD8403002074
:20056000000000007CD9000008B5044B1BB104490448AFF30080BDE80840CDE700000000F2
:20058000880300207CD90000A3F5803A704700BF154B002B08BF114B9D46FFF7F5FF0021F7
:2005A0008B460F461148124A121A0BF0B7F80C4B002B00D098470B4B002B00D09847002009
:2005C000002104000D000B480AF032FF0AF060FF2000290000F0BAF90AF030FF00000800F5
:2005E000000000000000000000000420840300200C2C002065B4000010B50446006830B167
:20060000002103F025FC54F8040F0028F8D110BD10B5044690F84CC023460CF1010C8021D1
:20062000064A203084F84CC000F0C2FD044B2246BDE810400020197803F0CCBC11060000F4
:20064000EE2B00202DE9F041038804463BB1B3F5867F0AD182290DD00120BDE8F0814FF4CF
:20066000867323800120BDE8F081002323800320BDE8F08101F022FBBFF35F8F0022164979
:20068000164B0E680A601F781A70FFB2BFF35F8F134D01F017FB28680028E0D0DFF8448041
:2006A00003E055F8040F0028D9D090F8463026FA03F3DA07F5D590F8453047FA03F3DB0751
:2006C000EFD500F0D7FD0028EBD02B6842461846022100F06DFDE4E7B4030020F12B0020DB
:2006E0004001002019070000012270B4074E084D346802FA00F3214331602A7805481343C3
:20070000DBB22B7070BC03F097BC00BFB4030020F12B00205C01002070B5044600F0AAFDEA
:2007200000B970BD04F12006304600F0A3FD94F84610054694F8450001F06CFA48B994F8D0
:20074000443063B9002DECD1304600F079FD0D4B11E00128F6D194F84430002BF2D1002DEF
:20076000DFD00025234630467E21074A84F84C5000F01EFD054B22462846BDE870401978A7
:2007800003F028BCF02B002011060000EF2B00202DE9F04103F054FB344BDFF8F08018701F
:2007A00003F04EFB324B334C187003F049FB0023FF21314AC8F80C30107023682F4A88F884
:2007C0000810C8F80420002B46D001272C4E2D4D0DE093F84630D8F80C2007FA03F3134389
:2007E000C8F80C3054F8043F88F80810A3B393F8452093F84600012A14BF3146294600F0EB
:200800001F009A6C01EB8003D3F8001242F08C0201F0E041C3F80012236893F8461093F8D1
:20082000450001F0B3F92268012192F8463092F8450003F01F0343EA401002F02DFA236825
:2008400098F8082093F845109142C2D0FF2AC0D054F8043F002BCAD10B48002103F0F8FA34
:20086000BDE8F041094801F0E9B900BFEF2B0020F02B002040010020EE2B0020E906000001
:2008800000258450002884505C010020A4030020704700BF042800D0704708B5054A13686F
:2008A0000133136000F0F4FD00B908BDBDE8084000F0CEBDB803002010B50024174B184844
:2008C00082B01C6001F0DCFF164B984216D04FF0FF0C0624144B154A93E803000090ADF898
:2008E000041013486946ADF800C08DF8024002F073FB0C4B984207D002B010BD01F0D2FF05
:20090000204601F0EBFFE2E70121094802F0C0FB074802F0ADFB02B010BD00BFB8030020AB
:20092000910800000000AD0B88D300009508000090D30000014B1868704700BFB8030020EE
:20094000014B1868C0097047B803002038B5664C03F072F9FFF7B0FF05F0A8FE03F0AAFA9C
:200960000021624803F074FA00F00EFC0AF08AFB00F0BAFC07F0E0FB03F066F903F07AFBA0
:2009800001F060FF01F070FF2368022B3ADC584A584B1168526819605A600021564803F07C
:2009A00057FA4FF0FF3008F041FF23680546022B11DC03F05BF95148FFF71EFE0AF08CFBDD
:2009C00003F094FA0446E4B20AF092FB002CF7D103F052F9F4E74A4A4A494B4803F068F914
:2009E0004A4803F065F92368022BE2DD05B10235284601F07FFB2368022BDADD0A2003F04B
:200A000029FBD6E73E4A3F493F4803F051F9404803F022FB2368022BB9DD394A39493A48B4
:200A200003F046F93B4B3C48196803F041F92368022BACDD324A3349334803F039F9374B71
:200A40003748196803F034F92368022B9FDD2C4A2C492D4803F02CF9324B3348196803F05E
:200A600027F92368022B92DD254A2649264803F01FF94AF6CD312D4803F01AF92368022B67
:200A800085DD1F4A1F49204803F012F90B21284803F00EF92368022B7FF779AF184A19490D
:200AA000194803F005F9234B2348198803F000F92368022B7FF76BAF114A1249124803F033
:200AC000F7F81E4803F0F4F82368022B7FF75FAF074801F01FFB2368022B7FF758AF0A20ED
:200AE00003F0B8FA53E700BFC0010020A0010020F4050020102A0020A00200202CD800007D
:200B000098D30000A0D30000A8D3000058D40000B8D30000E8D50000CCD3000068D600002B
:200B2000DCD3000084D40000E8D30000F4D3000010D40000DC2B002030D4000040D4000009
:200B40002DE9F0470D4614468B680646D3E90078506B92F82C9001F0A5FA686803F0C8FA12
:200B6000A9681E4801F0A6FB29461D4801F0A2FB606B01F049FAE0B10023A38503F0E6FA5C
:200B80000146184D234604F10C00A5FB01540D1B04EB5504A408C4EBC404091B124A00F047
:200BA00007FB4B46324641463846BDE8F04701F047BB04F10C0000F043FB21460B4801F07C
:200BC00071FA21460A4801F075FB4B46324641463846BDE8F04701F033BB00BF6C0100207B
:200BE0008401002025499224F50B0000240400207801002020B32DE9F047044684B0406B02
:200C000001F002FA0546C0B1406803F087FA7B490C2002F0F5FF0121072002F0E3FF00F02C
:200C2000ADF900280DDAAB683BB105202246294604B0BDE8F047FFF783BF04B0BDE8F0876C
:200C4000704702F071FF6E4F90F802807B68019302F06AFF064602F071FF019B01463046DB
:200C6000984702F0E1FFBB6906460193984700282DD1002E62D1D7F81C90C84738BBBB68B9
:200C80001E4602F05BFFB04700286ED002281ED0AB68002BD1D00420C8E705F0F1FC6FF03C
:200CA00028031E1A03E005F0EBFCC64202D5C8470028F8D0C847002872D003213B6903A848
:200CC0009847032803D19DF80E3043453CD0AA68002AB2D094F82D104B1CDBB2052B84F8A8
:200CE0002D301BD8127A94F82C00904222D2012B88BF1F267AD903F029FA0146234604F1D4
:200D00000C00B1FBF6F404FB16113E4A00F050FA686804B0BDE8F04703F0E4B9002194F8AC
:200D20002C3084F82D100133DBB284F82C30127A9A4218D822462946012079E7BE6802F03D
:200D4000FDFEB0470028A1D1AB68002B3FF475AF002094F82C3022460133294684F82C3087
:200D600084F82D0064E70726C5E705F089FC6FF0180AAAEB000A04E005F082FC1AEB000FA1
:200D800002D5C8470028F7D0019B9847002884D1C847002881D17B69984700283FF47DAFB3
:200DA000A96800293FF449AF002294F82C3084F82D200133DBB284F82C300A7A9A4203D827
:200DC00022462946022033E703F0C0F901460E4E234604F10C00A6FB01640E1B04EB5604CF
:200DE000A408C4EBC404074A091B8FE701260B1DDBB206FA03F35E1E7DE700BFF40500205B
:200E0000ECD40000F50B0000254992242DE9F04107460D200E4602F0FFFE054601F0ACF909
:200E200001210B2002F0DEFE464801F0EDF8C8B1044604E0204601F059F9044690B12946E9
:200E4000201D01F0D5F80028F4D0606B01F044F907281EDD31463846BDE8F0410123062271
:200E600001F0EEB9384801F009FA04460028F1D02946201D01F0B6F8002304F130006063DD
:200E8000A385236301F0BCF821462E4801F0BEF8DBE72E4801F0F2F9054658B32C4801F0AC
:200EA000EDF9A86010B303F0F9F86860D0B10520D5F8088002F09EFE10F0FF0008BF08235B
:200EC000C8E9007614BF88F8080088F808302946606B01F09BF8606B01F096F8854217D022
:200EE000BDE8F081A9681A4801F0E4F92946174801F0E0F9606B01F0EFF80028AAD1214656
:200F0000104801F0CFF821460F4801F0D3F9A1E794F82D30012B0FD91F2503F017F9014633
:200F2000234604F10C00B1FBF5F40A4A04FB1511BDE8F04100F03CB901250333DBB29D40B8
:200F4000013DEAE72404002078010020840100206C010020F50B000008B5054801F07CF9FF
:200F6000044801F079F9BDE80840034801F074B9840100206C0100207801002010B50121BA
:200F80000B2002F02FFEBDE81040014B5B681847BCD40000014B9B68184700BFBCD4000017
:200FA000014B1B6A184700BFECD40000014B5B6A184700BFECD4000010B50D4B82B01B68C1
:200FC00098470C4B04469B6A182001A9984701280BD0002CB8BF1524019B802BD4BFC4EB62
:200FE0000300C4F1800002B010BD002002B010BDBCD40000ECD40000FFF708BF30B50E4C4F
:2010000083B018206946A56AA84750B904200DEB0001A84738B101F0A7F8FFF79DFF236A0B
:20102000984703B030BD0199E36A21F00201019104209847EFE700BFECD4000030B583B034
:2010400002F076FD032801D103B030BDFFF7A2FF0028F9DB0D2002F0DFFD234900F0C8FFDD
:2010600010B30C2002F0D8FD1F4900F0C1FF04460028E9D101F08AF80546D0B1072002F01E
:20108000B9FD0028E0D002238DF805408DF8043002F04AFD0246154B92780321DB6801A81F
:2010A0008DF806209847CFE702F0BEFD0028D8D1CAE701F091F8072002F09CFD18B90C4B6D
:2010C0009B689847C0E702238DF805508DF8043002F02AFD0246054B92780321DB6801A804
:2010E0008DF806209847EAE7F4050020ECD4000068D60000F0B50388054683B033B14A2B77
:2011000018D188291BD0012003B0F0BD1B4800F07BFF044630B1A168201D00F09FF9246877
:20112000002CF8D10122164B1A704A2301202B8003B0F0BD002303202B8003B0F0BD0F486B
:20114000019200F061FF04460028EED0019A031D9A4205D02468231D002CE6D09A42F9D1BC
:20116000084E2146054800F09DFFD4E90523376832600BB1E06998473760D6E70405002062
:20118000F22B0020E80A002010B50024054B06481C7000F035FF2146BDE81040034802F030
:2011A00057BE00BFF22B00200405002090010020F8B50E4C0E4D27782E680446C0E9062391
:2011C000466137B981602146BDE8F840094800F01DBF094B04302B6000F040F921462E6005
:2011E0000448BDE8F84000F011BF00BFF22B0020E80A0020040500209001002070B50C4BA2
:2012000004461B782BB92146BDE87040094800F0FDBE094D094B2E6804302B6000F028F945
:2012200021462E600348BDE8704000F0EFBE00BFF22B002004050020E80A00209001002094
:2012400010B50A4B04461B783BB9C0E903332146BDE81040064800F025BF043000F020F909
:201260002146BDE81040024800F01CBFF22B00200405002038B50C4B04461D786DB90B48FB
:2012800000F0C2FE38B1A04202D10BE0844209D000680028FAD1012038BD0430BDE83840B4
:2012A00000F0F0B8002038BDF22B00200405002010B50446C0B207F027FF204610BD00BF8B
:2012C00070B570B10E460024451E04E0A64206D007F01AFF013415F8010F0028F6D1204694
:2012E00070BD0446FBE700BF704700BF10B5FFF721FB0B4B1A68D2E9003192680B44191A49
:2013000052B1D2E9003423441B1A9268994228BF1946002AF5D14318024A136010BD00BF8E
:201320000C050020080500202DE9F8430388054653B3592B2BD187292ED082291FD14FF01A
:2013400000092B4FDFF8B0803C68C4B1002603E0A36826469BB11C46204607F0A3FE002896
:20136000F6D022468821E06802F034FE00282BD0404602F061FEA3682646002BEBD1592356
:201380002B800120BDE8F883194A1360F7E700232B800320BDE8F883154F0020396819B9A5
:2013A000EDE789680120D9B1CB689342F9D000B139608B68002BE2D0D86890420BBF9B68F3
:2013C00019468B609B68F5E7A368E0606EB1B3603B68C4F808902BB1FFF788FF3C68B4E7D8
:2013E0003960CCE7034A1360C9E73B60F1E700BF0C05002008050020A001002010B50446D1
:20140000104802F019FE1049E3680A684BB142B194420FD0134601E09C420BD09B68002B90
:20142000FAD10A4BA2601B680C60E360BDE81040FFF75CBF054B1B68E360BDE81040FFF751
:2014400055BF00BFA00100200C050020E80A0020014802F0F1BD00BFA001002010B504463D
:2014600007F00AFE2046BDE81040FFF7C7BF00BF10B5044607F008FE2046BDE81040FFF77A
:20148000BDBF00BFC068B0FA80F04009704700BF024B1868003818BF012070470C0500202B
:2014A00010B5124B04461968814214D00B462BB19A68A24206D01346002BF9D10023C4E991
:2014C000023310BDA2689A6049B1FFF70FFF0023C4E9023310BD82681A60002AF5D10022C0
:2014E000034B1A600023C4E9023310BD0C05002008050020014B1888704700BF78030020F7
:2015000000283ED0037A30B4022B10D00378022B15D00379B3B10024C37913F0030318BF7A
:20152000012301B10C6002B1136030BC7047C579447A037965B90CB9012BF2D0DBB10023A8
:201540001C46EEE7447A14F0030418BF0124E3E7C4B1032D37D1032C2ED0022C24D143BBCA
:20156000022D2DD00123032D24D1A4F10204B4FA84F46409D5E7023C012C8CBF002401240D
:20158000CFE770474BB9022D08BF0123EAD1A4F10304B4FA84F46409C3E7032D01D0022DFC
:2015A00002D123461C46BCE7002BC8D1022DDAD1EDE701230024B4E7002BC0D10123D4E7FA
:2015C00001231C46ADE7022DC7D1002BF1D1022C4FF00103DBD11C46A3E700BF002330B56D
:2015E0000B608B80437D0D46D9075CBF01232B70037E0446012B83B023D9694601AA04F133
:201600001000FFF77DFF009B0BB10223EB70019B0BB102236B70E37D03F00303022B03D0C0
:20162000032B14BF00230823AB70637E03F00303022B03D0032B14BF002308232B7103B0C8
:2016400030BDC37D9A0706D0437E9B0703D0C28B838B9A4202D000232375CEE7012303759B
:20166000CBE700BF02280CBF012307230B441A781846FF2A03F1FF3303D18142F7D10120A8
:2016800070470020704700BF00B583B06946FFF7A5FF9DF800309DF801209DF80200023385
:2016A0009DF80310134403449DF804209DF805000B441344184403B05DF804FB43788278D3
:2016C00090F800C0DB00120102F0100203F0080313430CF0070290F803C0134302794FEA22
:2016E0004C1C0CF0200C920143EA0C0302F0400213430B704379827990F809C003F0010387
:20170000520043EA8C1302F0020290F807C01343027A4FEA8C0000F00C001201034302F088
:20172000300213434B70704730B50C46054683B06946FFF753FF214605F11000FFF7BEFFE3
:201740009DF80030012B02BFAB7E0322A3709DF8013018BF0222022B08D1A98B531CA15417
:20176000A98BDBB20232090AD2B2E1549DF802306BB303F1FF3E1344AE44DBB294460132AF
:201780001EF80119D2B29A4204F80C10F6D19DF80320022A08D1E98B5A1CE154E98BD2B206
:2017A0000233090ADBB2A1549DF8040088B100F1070C1844AC44C0B21A4601331CF801E939
:2017C000DBB2984204F802E0F6D103B030BD1346DDE7184603B030BD02784378C2F3C00098
:2017E00002F0070C4870C2F3401081F800C0C870C2F3001C03F00100C2F3801281F802C06F
:201800000A71C3F3400CC3F301124871C3F381009B0981F806C0C8710A724B72704700BFC7
:20182000012943DD2DE9F04186B00F4603A914460546FFF7D1FF0B469DF8112003CB1B88ED
:201840002061616123836AB3AE1C03A802AA01A9FFF756FE9DF81380B8F1000F43D0029BDD
:20186000002B31D1B8F1020FA38367D0B8F1030F4DD09DF81580B8F1000F2CD0019BBBB95E
:20188000A38BE383B8F1020F4DD0B8F1030F31D0701B3B1A8742C4E90E6300DA002006B0AA
:2018A000BDE8F081AB78EE1CA376CEE700207047727816F8023B03EB0223029A9BB2E383A9
:2018C000002ADFD1A383DDE7727816F8023B03EB02239BB2C6E71E4904F1080000F082FB31
:2018E000A4F81E80D4E72046194900F07BFBA4F81C80BEE706F10800034604F1080213F896
:20190000011DB34202F8011BF9D10646C0E706F108000346621E13F8011DB34202F8011FE1
:20192000F9D10646A5E70A4904F1080000F05AFB7378237216F8023B6372A9E7204604498D
:2019400000F050FB7378237016F8023B637090E7C8D4000030B591B002F0D6F8044602F07B
:20196000E7F86A4601462046FFF75AFF00283ED0044602F0ADF8D0B39DF810100B2002F070
:2019800031F907209DF8131002F02CF99DF817308BB1BDF81C50FFF7ADFD854205D04FF66D
:2019A000FF73BDF81C209A4221D169469DF81700FFF758FEB0B10C2002A902F021F99DF876
:2019C00015303BB14FF6FF71062002F00BF9204611B030BD9DF81A10062002F003F92046B8
:2019E00011B030BD69460D2002F00AF9E3E74FF0FF34ECE7F8B505460B2014460E46A84799
:201A000000232074A374002E35D0E37463750820A847002702460123A2752376062067743B
:201A2000A847A076FFF766FD03460920E383A84701280CBF3B4603236376FFF75BFD034676
:201A40000A20A383A84701281AD066B90323E375637E022B0CD0E37DA3F10203B3FA83F391
:201A60005B092375F8BD0223E375637E022BF2D101232375F8BD0720A8476675E074C6E704
:201A8000E775E5E730B591B04FF6FF740546FFF731FDA0423AD040220021684609F03EFE7F
:201AA00002F0C2F86A4601461A48FFF7A3FF02F0BBF818B3ADF800400C2002F0ADF801462A
:201AC00002A800F08FFA02F01FF80E9002F030F8034668460F93FFF7D7FD044615B9204641
:201AE00011B030BD01F0C2FF80B102F01DF801466846FFF719FE204611B030BD0D2002F019
:201B00008BF80146684600F06DFAD5E74FF0FF34E5E700BFF53B00000120FFF7B3BF00BFC5
:201B20000020FFF7AFBF00BF0649074A074B9B1A03DD043BC858D050FBDC07F06BF8FEF736
:201B400027FD000088D900000000002084030020FEE7FEE7FEE7FEE7FEE7FEE7FEE7FEE711
:201B6000FEE7FEE7FEE700BF012100F01F039940C0F3471000F068B808B500F08BFF00B1E8
:201B800008BD0720BDE8084000F030BF022330B5002483B001F01F018DF8063012F00C034F
:201BA000ADF8044041EA4015144608D0042B26D0082B28D00C2B04BF03238DF8043014F05D
:201BC000030306D0022B16D0012B04BF03238DF8053028460E4A01A901F048F8230604D4A5
:201BE000284601F0C1F803B030BD0121284601F053F803B030BD01238DF80530E9E70123EF
:201C00008DF80430DBE702238DF80430D7E700BF691B000001F01F01064A41EA4010064B3D
:201C20004009012808BF13461869C84000F00100704700BF0028845000258450014601489D
:201C400000F0E4B91005002070B505460C480E4600F0DAF990B1044601E0246874B1237A2D
:201C6000AB42FAD1E36816EA0301F6D06268002AF3D0284690472468002CF0D170BD00BF36
:201C80001005002008B5034800F0BAF9BDE80840FFF772BF10050020BFF34F8F0549064BEC
:201CA000CA6802F4E0621343CB60BFF34F8F00BFFDE700BF00ED00E00400FA05EFF3108005
:201CC00072B6704780F31088704700BF00234FF0010C30B5134A144D144C40FA03F1C90734
:201CE0000DD5917889B15178012914BFAE46A646117801F01F010CFA01F1CEF80810013375
:201D0000042B02F10302E8D130BD5178012914BFAE46A646117801F01F010CFA01F1CEF8F8
:201D20000C10ECE768D300000025845000288450104830B4104D114C00F10C0C437810F8C2
:201D4000032B02F01F0141EA43135B09012B14BF2A46224602EB8102D2F80032844503F05F
:201D6000E04343F00303C2F80032E7D130BC0F20FFF7ACBF68D300000025845000288450B7
:201D800010B50948FFF73AFA084800F0E3FB48B1064C037A01465B080372204600F0A2FB0B
:201DA0000028F6D110BD00BFD4050020B00100200146014800F08EBCB001002080B110B54D
:201DC0000446FEF7B7FD2368C01AB0F5963F05D2207A032894BF0020012010BD002010BD47
:201DE0000020704770B50546144689B1022907D006290CD1BDE8704001462A4800F06ABCD6
:201E00000146284800F066FC0646002832D170BD0146244800F05EFC0646002835D0FEF7AA
:201E200089FD337A30602344102BA8BF10233372FEF780FD3368E401C01AB0F5963FA4B262
:201E400008D2337AB188042B34BF19230A2329B9B48070BDB18819230029F9D003FB04F497
:201E6000C3F1640201FB02420F4CA4FB02325209B28070BDFEF75EFD337A30602344102BF1
:201E8000A8BF10230C343372D2E7334608222946044800F08BFB06460028B8D047F6FF738B
:201EA000C380BCE7B00100201F85EB5138B50546042001F09FFE04462946224824B200F0B8
:201EC00009FC40B347F6FF73B0F906209A422DD05A2504EB8404630012FB05321A4C8188A7
:201EE00084FB0234D217C2EB641424B2C48001B138BD04F15A0212B222EAE2721E2AA8BF3A
:201F00001E22124BD201A3FB0232120902F5807292B2828038BD034608222946094800F01D
:201F200045FB0028E4D047F6FF73C3808388C480002BDDD147F6FF739C42DAD14FF48072FE
:201F4000E7E700BFB00100201F85EB518988888838B5094800F0FEFA60B10446064D2146E7
:201F6000284600F0D3FB2146284600F0BBFA04460028F4D138BD00BFB001002010B5002119
:201F8000054800F08BFABDE8104000234FF4E131024A0348FFF70CB9B0010020811D000051
:201FA000D405002000B54FF0CE0C4FF0F40E36204FF47F0183B06B468DF800E08DF801C071
:201FC0008DF80200D1F80802054A8DF80300D1F80412019103CB1060516003B05DF804FB69
:201FE000F40500200A684B6802604360704700BF082208B509F070FAB0FA80F0400908BDB6
:2020000000230360704700BF006870470368DBB110B4002400E0134699420FD01A681C46EF
:20202000002AF8D100230B600368CBB11A461B68002BFBD111605DF8044B70470A686CB103
:20204000226000221A60EDE700230B6003684BB11A461B68002BFBD1116070470260F0E75E
:202060000160E8E70160704730B405684DB12B46002400E01346994207D01A681C46002A3B
:20208000F8D10D60016030BC70470A683CB1226000221A6005680D60016030BC7047026049
:2020A000F6E700BF03689BB110B4002400E0134699421A6805D01C46002AF8D15DF8044B81
:2020C000704734B1226000221A605DF8044B704770470260F7E700BF03682BB100201B684B
:2020E0000130002BFBD170471846704700B10068704700BF00B58BB002462821684608F036
:20210000ADFF6946024801F0D3FD0BB05DF804FBD0D4000008B3F8B5002504460126104F49
:2021200065B1EB070FD53846217801F0C1FD082E12D0013501360134002DF2D1384621782C
:2021400001F0B6FDF5E72E2001F084FF3846217801F0AEFD082EECD1F8BD024801F0A8BD42
:20216000E4D40000D4D4000008B501F0EFFF014B187008BDF32B0020034B062019784A1C21
:202180001A7001F02FBD00BFF32B0020F8B5FEF7D1FB104E0025344607460C2001F03CFDCD
:2021A0002146FFF725FF103420B90135102DF4D10020F8BD062001F01DFD06EB05152B7B92
:2021C0008342F5D1A868381AB0F5206F8CBF00200120F8BDFC05002070B5184E0024354652
:2021E0000C2001F019FD2946FFF702FF103510BB0134102CF4D10F2406EB041C64465CF8BE
:20220000100DDCF80410DCF80820DCF80C3066450FC4F3D1062001F0EDFC3073FEF78AFB4E
:2022200003460C20B36001F0F7FCBDE8704001460248FFF7D7BE002CDED1EBE7FC050020F3
:2022400000B5864630B1084611461A4673465DF804EB18475DF804FB10B50446428800216D
:20226000406809F05BFA23886288A0680021BDE8104003FB02F209F051BA00BF30B445884F
:20228000ADB10022436802E00132AA420CD019460C780133002CF7D101230B700588806817
:2022A00002FB050030BC7047002030BC70472846F8E700BF10B4448882685CB18A420ED079
:2022C0000023B0F800C001E0914209D00133A3426244F9D14FF0FF305DF8044B7047002371
:2022E0004268D15C0029F5D00021D15408465DF8044B704783688B4208D84288008800FB45
:20230000023081422CBF002001207047002070474188034649B100205B68194413F8012B8B
:2023200002B901308B42F9D170470846704700BF38B503460F4D1048002B18BF1D46FFF75A
:2023400063FE58B104462846211DFFF751FE40B92046FFF7CBFE04460028F4D14FF0FF3015
:2023600038BD064A064B9068201A801003FB00F038BD00BFC8D400002C070020C40100208F
:20238000ABAAAAAA2DE9F0411648FFF73DFE804620B30024144F154E154D08E0204603F098
:2023A00011FB04464046FFF7A1FE804698B1B368A8EB03039B1005FB03F3FB5C002BF1D104
:2023C00008F10401002CE9D140460C46FFF78EFE80460028EBD12046BDE8F08104462046E9
:2023E000BDE8F0812C0700201C070020C4010020ABAAAAAA2DE9F04705460F46214CDFF872
:2024000098A0DFF88490DFF8848004F1200654F8041FB9B18A68AAB1A5B1D9F80830EB1A19
:202420004FEAA30C0C3308FB0CFC0BD04868CB6800FB0C3030B109681AF80C300B41DB07A7
:2024400000D59047B442E2D1C5B10F4B0F4A9B68EB1A9B1002FB03F300220D490D48CA546D
:2024600029460AF80320FFF71DFE0FB9BDE8F0872946BDE8F0470448FFF71CBF4FF0FF33FA
:20248000EAE700BFF8060020C4010020ABAAAAAA1C0700202C07002004080020034638B10C
:2024A0000268072A04D80D4850F82220934211D00B480268072A0BD810B499600749541CC2
:2024C0001A60046041F8223001205DF8044B70470020704701209960704700BFFC0600208E
:2024E00000080020F8B506460846174F174C184D2EB358B1F3687268C11A91FBF2F1481C72
:202500001BD0B86801EB410100EB8100FFF7EEFD88B1BB68C31A9B1004FB03F35A1C0AD00C
:202520007068F16800FB031028B1EB5C32681341DB07DDD5F8BD0020F8BD0020E6E73046CD
:20254000FFF7D4FD3046F8BDC4010020ABAAAAAA0408002010B504461048FFF755FDB8B1B7
:202560000F4B9968411A94B111F10C0F0FD00D4B891001FB03F36068E16800FB031038B179
:2025800009492268CB5C1341DB0701D510BD002001462046BDE81040FFF7A4BF2C070020F1
:2025A000C4010020ABAAAAAA040800202DE9F041002843D00D46424B0446002908BF1D4662
:2025C0002846FFF7B5FE431C29D06268E36802FB003323B33B4B22681B5C1341DF071ED5BD
:2025E00000272846FFF7A4FE461C2BD06268E568002102FB0055284609F090F8E3686268C3
:20260000EB1A93FBF2F35A1C06D001222D492468C85CA2400243CA542846BDE8F081284676
:20262000FFF786FE0130DBD12748FFF771FE0028D6D1FFF7A7FE07460028D2D1002528465A
:20264000BDE8F081DFF880804046FFF717FE0646B0B131461D48FFF7D9FCD8F80830294631
:20266000301DF51AFFF7BEFC15F10C0F1BD100210D460846626809F051F82846BDE8F081EF
:20268000002FDBD03846FFF753FE411CD6D0D8F8083000EB400013EB8006CFD000213046AB
:2026A000FFF7A8FED5E70A4BAD1005FB03F36268E568002102FB0355284609F02FF89DE71B
:2026C000C8D4000004080020C40100202C070020ABAAAAAA10B504460846FFF729FE84B1A2
:2026E000431C02460DD06068E36800FB023038B1054B21689B5C0B4113F0010F08BF002017
:2027000010BD002010BD00BF0408002028B311B3C3684268CB1A93FBF2F35A1C1BD030B502
:202720004FF0010E0E4C0568E25C0EFA05FC22EA0C02E254C2684368891A91FBF3F14B1C9E
:202740000CD0084C0268635C0EFA02F223EA02036354704630BD002070477047704630BD87
:20276000040800201C070020B0B199B1C2684368891A91FBF3F14B1C0CD0012310B4074CD9
:202780000268605C03FA02F20243625418465DF8044B704700207047704700BF1C070020DE
:2027A000B8B1A1B1C2684368891A91FBF3F14B1C0DD0012310B4074C0068625C03FA00F0E4
:2027C00022EA0002625418465DF8044B70470020704770471C07002088B179B1C268436873
:2027E000881A90FBF3F0431C08D0054B00EB4000996811EB800002D0043070470020704706
:20280000C401002070B505460D480E46FFF7FCFB68B10446012D0CD01DB963680BB1984724
:2028200030B92046FFF762FC04460028F2D1002070BDA368002BF4D030469847F0E700BF8E
:2028400014080020054B10B51B689847044B5B689847BDE81040034B5B681847ECD40000AF
:2028600084D4000068D60000034A04499079D37903EB00230B807047F4050020DC2B002040
:20288000054A0346117921B9012104481360117170470348704700BF180800200000AD0B69
:2028A0000C00AD0B0B4B1A6892060CD54FF05022012302200849C2F81805C2F81435C2F827
:2028C00080350B707047E02283F8052320221A60ECE700BF00E100E0F42B0020032810D80B
:2028E000DFE800F02A1E10024FF0502300204FF480710122C3F82001D3F82001C3F8041304
:202900009A6170474FF0502300204FF400710122C3F82401D3F82401C3F804131A62704787
:202920004FF0502300210122C3F80011D3F80011C3F804231A6070474FF0502300200221F1
:202940000122C3F80401D3F80401C3F804139A60704700BF4FF0502310B5D3F8002152B11C
:2029600000200121C3F800011F4AD3F80041C3F80813136898474FF05023D3F804215AB107
:2029800000240221C3F80441174AD3F80441C3F808130120136898474FF05023D3F8202170
:2029A00062B100244FF48071C3F820410E4AD3F82041C3F808130420136898474FF0502306
:2029C000D3F8242172B100244FF40071C3F82441054AD3F82441C3F808130520BDE810405D
:2029E0001368184710BD00BF1808002070B5224C94F85B30002B3DD105464FF0FF0E4FF672
:202A0000FF705A09012A14BF4FF0FF31014603F01F0221FA02F204EB030CD20703F101033E
:202A200048BF8CF824E0302BEBD14FF0FF362022FF211248266008F071FE00221049114BFC
:202A40006D01EDB284F8546083F80D53C4F855208A804FF4005119604FF0004501210A4B1B
:202A60000A48C3F87C21D3F87C21C3F8045384F85B1070BD064870BD20080020240800200F
:202A80007508002000E100E000D000500000AD0B0500AD0B034B93F85B00003818BF0120DF
:202AA000704700BF2008002070B54FF0000CFF230124114E07E0F56D154217D062B69343CD
:202AC0000CF1010C10D05FFA8CF172B623FA01FE1EF0010F04FA01F2EDD104FA01F262B61C
:202AE00093430CF1010CEED1044870BD2A43F265017062B6024870BD200800200200AD0BF8
:202B00000000AD0B2DE9F04182B00446884616469DF820C0002B6CD04FFA8CF35D1C00F003
:202B200092809C464B4D98F802002A19800782F824305CBF05EB0C0282F84C4045F82C60F7
:202B400098F80200410724D410F0010F424A43484FEA54165AD1012E08BF024604F01F005D
:202B600002EB8002D2F8000298F8016000F0E04040EA8600C2F800020120394EE20816F80D
:202B800002E004F00707B84040EA0E00B05498F8020082070DD4083B2B4498F8001093F844
:202BA0005420304842EA811283F8542002B0BDE8F0814FEA8C0202F1A04202F55042D2F8C4
:202BC000103598F8001023F44F3323F44073C2F8103523020C0404F44034D2F8101503F427
:202BE0007C53204823430B43C2F8103502B0BDE8F0818B789F071FD472B6164D2B6A013333
:202C000012D062B6184802B0BDE8F081012E08BF024604F01F0002EB8002D2F8000220F0F6
:202C20000200C2F80002A7E76FF001032B6262B64FF0080C634676E70DF10700FFF734FFB9
:202C4000084B984203D0084802B0BDE8F0819DF9073063E720080020002584500028845008
:202C6000750800200000AD0B0200AD0B084B034493F92430002B01DB06487047002300B5E7
:202C800083B00093FFF73EFF03B05DF804FB00BF200800200B00AD0B70B42F4C04EB000CD0
:202CA0009CF92430072B20DD083B44FA83F393F854309B09032B40D0012B0CBF4FF40032A8
:202CC0004FF44032410900F01F00244B244C012908BF234603EB8000D0F8003223F44033BB
:202CE0001343C0F8003270BC7047DAB2072AFAD80026980000F1A04000F55040D0F81055E1
:202D0000920002F1A04202F5514245F00105C0F81055166012680029E5D09CF9242054F877
:202D20002220911C0129DED9002ADCD001220D4902FA03F3C1F80433D5E7094A074B4109E7
:202D4000012908BF13461B6900F01F00C34003F0010302331A04B8E7200800200025845069
:202D60000028845000D00050174B034493F92430072B18DCDAB2072A14D8012110B49A005F
:202D800002F1A04202F55042D2F810050F4C20F0010001FA03F3C2F81005C4F808335DF87E
:202DA000044B704770470A4B0A4A4109012908BF134600F01F0003EB8000D0F8003223F48B
:202DC0004033C0F8003270472008002000D0005000258450002884502DE9F04700250122ED
:202DE0002E4682B0CDE90055544B554C5548196831B1D4F80413114202D01E601968154383
:202E0000043383424FEA4202F1D14D4BD3F87C212ABBEBB2F3B101260024DFF83481A300D7
:202E200003F1A0432E4203F550434FEA46060ED058F82420D3F81005971CD3F81015012F16
:202E4000C1F30141C0F3052001D902B190470134082CE4D1002D14DB02B0BDE8F087002018
:202E60003949C3F87C01D3F87C310B6A374A00930B62136A45F00044EDB201931362002D5F
:202E80005AD10127324E304D304C96F95400421C3FD0C0F3C20308336B4413F8083C00F075
:202EA0000702D340DB07C1B200F03F0031D543090CBFA946A14601F01F0307FA03F809EB7C
:202EC0008303D3F8002206EB000EC2F3014CBCF1020F0CBF4FF4403A4FF4003AD3F80022CE
:202EE00022F4403242EA0A02C3F80022C9F820809EF9243056F823309A1C012A09D943B191
:202F00008909032912D0BCF1020F0DD0BCF1030F0ED02A6A00922A62236A0193236213432B
:202F2000B3D102B0BDE8F0870129F2D19847F0E70229EED19847ECE725466CE700D1005021
:202F400000D0005020D100500025845000288450200800204FF0502310B5D3F804436107E2
:202F600002D5D3F8082112BBA20604D54FF05023D3F8142192B963060FD54FF05023D3F871
:202F8000182152B100210E4AC3F81811D3F818310120BDE810401368184710BD0020084A55
:202FA000C3F814011268D3F814319047E3E70021044AC3F808111268D3F808319047D3E7C4
:202FC000840800208008002008B5FFF7C3FFBDE80840FFF7BFBC00BF30B41F4D43791F4C94
:202FE00045F8232003EB4303E35C13B130BC1C48704790F904308A78002B25DB520103F1E2
:203000006043D2B203F5614383F8002390F90430002B08DB01225D0903F01F0302FA03F3F4
:20302000104A42F82530012503680A88C3F808254379087903EB4303C978E218507091702F
:203040000948E55430BC7047084D520103F00F03D2B2EA54DAE700BF8C08002088080020F0
:203060000500AD0B00E100E00000AD0B14ED00E010B4012402210368044A1C60437903EB4E
:203080004303D1545DF8044B704700BF8808002010B4002401220368C3F80041D3F800318D
:2030A0000368C3F8442311B10368C3F804235DF8044B70472DE9F04100244FF48035224E46
:2030C000224FDFF88C80D6F804332B420FD057F82430E0B25BB10023C6F84853C6F8085375
:2030E00047F82430D8F8003057F8242098470134042C4FEA4505E6D1134BD3F80423D10704
:2031000002D5D3F80021A2B90F4BD3F8042392070DD5D3F8042152B100210D4AC3F804118F
:20312000D3F804310520BDE8F04113681847BDE8F0810021064AC3F8001120461268D3F8BC
:2031400000319047E0E700BF00400150404101508C0800202DE9F04F0679A14D06EBC6034E
:2031600005EB830383B093F820300192F20000921BB19C4803B0BDE8F08F834608680C46A2
:20318000471C1FD00127984B984A4FEA501EBE4514BF94469C4600F01F0007FA00F0CCF8F3
:2031A000080008684709012F08BF1A4600F01F0302EB8303D3F8002202F0E04242F0030233
:2031C000C3F800226368581C0FD0884A86485F09012F08BF024603F01F0302EB8303D3F85A
:2031E000002202F0E042C3F80022DBF800306269C3F82425227FE37EA07E1343E28B0243C2
:203200001343DBF80020C2F86C35DBF80030D4E90020C3F80C25C3F81405A37E012B00F02D
:20322000A180DBF80030D3F8682503F26457012A08BFDA60D3F8640501286BD0009B019969
:20324000334405EB83025160226945F82320002945D00023DBF80000227EC0F81031D0F831
:203260001001DBF80000624CC0F82031D0F82001DBF80000C0F82431D0F82401DBF800002A
:20328000C0F84431D0F84401DBF80000C0F85831D0F85831DBF80030C3F80443DBF8003087
:2032A00043F3073000284FEA13332CDB520100F16040D2B200F5614080F80023DBF8002067
:2032C00042F30733002B4FEA12300ADB012200F01F0002FA00F0474A5B0942F82300DBF8B1
:2032E000002000990023314405EB8105082401214148C2F80045C5E906336B6185F82010D1
:2033000003B0BDE8F08F3D48520103F00F03D2B2C254D3E70823DBF8002049F64048C2F806
:203320000035DBF80030DFF8E0A05860344B43F0010907E00368AAFB0323980CC847B8F111
:20334000010803D03B682F48002BF3D10022DBF80030D3F88004C3F88004DBF80030C3F817
:2033600000256BE7A368591C0FD0204A1E485F09012F08BF024603F01F0302EB8303D3F8AD
:20338000002202F0E042C3F80022E3685A1C1FD0164A154F5809012814BF9446BC4601204C
:2033A00003F01F0300FA03F3CCF80830E3685809012808BF3A4603F01F0302EB8303D3F89D
:2033C000002202F0E04242F00302C3F80022E368DBF80020A068C2F80835C2F8100520E790
:2033E000900800200500AD0B00288450002584501003420000E100E00000AD0B14ED00E0B4
:2034000030D300009C02002083DE1B4301F06043B3F1005F3DD170B590F804C0204D0CEBB2
:20342000CC0305EB83035C694FEACC0E002C32D101265A6199600268C2F82041D2F82021D5
:203440000268C2F85841D2F8582102685C69C2F84415C2F84845026896605B680BB11148AB
:2034600070BD036800E0C2B9D3F82011D3F858210029F8D08AB90122DA600268D2F85831CB
:20348000002BFBD007480023F44405EB8C056B6170BD05487047054870BD0548F3E700BFAE
:2034A000900800200000AD0B0A00AD0B0B00AD0B0800AD0B0379054A03EBC30302EB830365
:2034C0005869003818BF0120704700BF9008002001F06043B3F1005F5FD1F0B50679494D4C
:2034E00006EBC60405EB840467684FEAC60E27B14FF404740368C3F808430EEB060305EBC7
:2035000083039C696CBB01279A61D960DC610368C3F81041D3F810310368C3F84441D3F867
:2035200044310368C3F83415C3F8382503681F6090F804C00CEBCC0205EB820253684FEA2C
:20354000CC076BB300224FF404710EEB060305EB830585F8212002682B4BC2F80413184659
:20356000F0BDDC69002C42D11961DA610368C3F81041D3F810310368C3F84441D3F84431F7
:203580000368C3F83415C3F838250268D2F8003243F02003C2F80032CAE71C4B18467047CF
:2035A000036801E0B9B9E4B9D3F81021D3F84411D3F82441002AF5D00020134A144B6744EE
:2035C000844208BF134605EB87050832814218BF1346A861C3E7674405EB87050D4BAA611F
:2035E000BDE7674405EB8705094BA961B7E737B14FF404710268084BC2F80413AFE7064BEF
:20360000ADE700BF900800200000AD0B0A00AD0B0100AD0B0800AD0B0B00AD0B70B5534B26
:2036200084B0D3F82421002A44D000214FF0020C4F4A6846D5685468C3F82411D3F824611A
:20364000C2E906118DF800C0D3F88014C3F880140391D3F83C351168CDE90153A047434BED
:20366000D3F8442142B10021414A9069C3F84411D3F84441002843D13C4BD3F8202152B150
:2036800000200121C3F82001394AD3F82041D9605169002951D1354BD3F8582142B1002048
:2036A000334AC3F85801D3F858115169002936D104B070BDD3F810110029D0D02C49C3F895
:2036C000102191F82120D3F81001002AC7D1D1E9064000283ED001258861CA61D3F80022F4
:2036E000086922F02002C3F80022CA684B68C86002946846096801928DF800509847AEE7AA
:203700000124D3F83C55D068C2E90611D2E90013CDE901058DF8004068469847ACE7D3F8F4
:203720004C45D2E901318DF80000CDE90114506111686846984704B070BDD3F84C45D2E90C
:2037400001318DF80000CDE901145061116868469847A0E70122CD688861CDE90154D1E9A3
:20376000001368468DF80020984778E7008000509008002010B5114BD3F800212AB1002015
:203780000F4AC3F80001136898470C4BD3F8042132B100210A4AC3F80411012013689847D0
:2037A000064BD3F8082142B10021054AC3F808110220BDE810401368184710BD007003500C
:2037C000B40800202DE9F0411646284B02790D4613F83210044603EBC2004660002939D109
:2037E000012703F8327023682A78C3F80C2569684FF47A72C8030023490C07F089FCD4F860
:203800000080C8F8040516B32368C3F8047322682B7A42F3073100294FEA12321DDB5B0143
:2038200001F16041DBB201F5614181F80033236843F30732002A4FEA133308DB01210C4828
:2038400003F01F03520901FA03F340F822300948BDE8F0810848BDE8F081084902F00F025C
:203860005B01DBB211440B76E1E700BFB808002000E100E00000AD0B0500AD0BFCEC00E024
:203880004FF0020C0122034B017903F831C003681A607047B8080020027972B60C4B03EBA0
:2038A000C2035A78072A10D84FF0010C0A70016802EB0C005870D1F808350CFA02F21A430B
:2038C0000448C1F8082562B67047034862B67047B80800200000AD0B0200AD0B034A0368C3
:2038E00001F5C07143F82120704700BF3546526E10B5064CD4F800313BB1054B5B68984782
:203900000023C4F80031D4F8003110BD00800150B808002000207047012070470020704796
:20392000002070470120704741B1182801D0012070474FF6FF7300200B607047022070472B
:203940000120704701207047012070470020704700207047002070470020704700207047AC
:2039600038B500230C4A0D4C0D48C2E90033C2E90233C2E904330B4D0B4A03800B492046A9
:203980002B801370FEF72EFB04F108000749BDE83840FEF727BB00BF50090020C00800207A
:2039A000E02B0020DE2B0020F52B0020C8D40000F8B500230C46124A124F134DDFF858C0A9
:2039C000124EC2E90033C2E90233C2E904332B700F4905463846ACF800303380FEF702FBB2
:2039E00007F108000A49FEF7FDFA802C28BF802429462246074807F09FFD20463480F8BDC9
:203A000050090020C0080020F52B0020DE2B0020C8D40000D0080020E02B00202DE9F041D6
:203A20000E4A0F4B14781F88E519802D03DD00252846BDE8F0810646DFF82C8022464146AF
:203A400007F07AFD074B3A4619883019214458FA81F107F071FD2846BDE8F081F52B0020EA
:203A6000DE2B0020E02B0020D008002010B5144B144C154A94F800E01B881288734452FA6B
:203A800083F39BB21A18802A17DC013B1BB2002B0EDB0E4A591C03EB000C11446244013B79
:203AA00011F801CD1BB2B3F1FF3F02F801C9F6D1864484F800E0012010BD002010BD00BF35
:203AC000E02B0020F52B0020DE2B0020D008002008490A8882420BDB10B4074C80B22388D9
:203AE000121A03440A80012023805DF8044B704700207047DE2B0020E02B0020014B18809B
:203B0000704700BFDE2B0020044A054B12881B780448134450FA83F0704700BFE02B00203A
:203B2000F52B0020D008002000487047D0080020014B1888704700BFDE2B00200549064A2D
:203B4000064B128808781B88104453FA80F080B2704700BFF52B0020E02B0020DE2B00200A
:203B6000844630B58E460D4C0D4D0FCCCCF80000CCF80410CCF80820CCF80C3003CCCCF819
:203B80001000CCF814100FCDCEF80000CEF80410CEF80820CEF80C3030BD00BF500900209C
:203BA000C0080020844630B58E460068DCF80410DCF80820DCF80C30084C094D0FC4DCF8ED
:203BC0001000DCF8141003C4DEF80000DEF80410DEF80820DEF80C300FC530BD500900200C
:203BE000C00800200246024B012023F81210704750090020014B33F8100070475009002003
:203C000008B5044B0C3803EBC000FEF7EBF9012008BD00BFC0080020024B0C3803EBC00001
:203C2000704700BFC008002001490248FEF7E0B9C8D40000C808002008B5FEF723F8BDE806
:203C40000840FEF775B800BF08B5FCF7A1FD45F2786000F081FA05F06BFA02F00BFEFEF729
:203C6000A1F9BDE8084000F079BA00BF0021014800F0EEB85802002010B5FEF71FF8044646
:203C8000BFF35F8F00F09CF900B930BFBFF35F8F2046BDE81040FEF715B800BF0AB90020F8
:203CA000704708B508461146FDF70AFB002008BD0FB400B583B004AA52F8041B044801926C
:203CC00004F006FB03B05DF804EB04B0704700BFD00100202DE9F84FDFF8CC800546D8F842
:203CE00000400E46844257D0002C43D0234601E0002B3FD01B689D42FAD1002B3AD0294FA6
:203D0000AB7BD7F8009053B30023AB73002C45D04FF0020A4FF0010BA54211D0A37BDB0738
:203D20000ED5A36863B12A4687213C6084F80EA004F10C0098470238012828D984F80EB025
:203D40002468002CE8D1AB683BB1B54205D0002283213D6005F10C009847D8F80040A542EC
:203D60000AD02CB12368AB420CD01C46002CF9D1C7F80090BDE8F88F2B68C7F80090C8F8C3
:203D80000030F7E72B682360C7F80090F2E721462046FFF79FFFD3E72346AEE7AB68002B80
:203DA000D3D1E5E7E80A0020EC0A002038B583687BB104460220A07309480D46046004F1EB
:203DC0000C0098470238012804D9832D02D00123A37338BD21462046BDE83840FFF77ABFEE
:203DE000E80A00200022F8B51249134B0C681A70D4B101250227114E01E02468A4B1E37BD8
:203E0000002BFAD0A36804F10C00E581002BF4D0002282213460A77398470238012804D9BA
:203E2000A5732468002CEAD1F8BD21462046FFF751FFE2E7EC0A0020F92B0020E80A0020FA
:203E4000024B1878421C1A70704700BFF72B0020F8B5164A1568854207D0044635B12B461C
:203E600000E01BB11B689C42FBD1F8BD002CFCD025600126146000220D4DA3682F68A67365
:203E8000A2815BB10A4602212C60A17304F10C00812198470238B04202D9A6732F60F8BDFA
:203EA00021462046FFF716FFF8E700BFEC0A0020E80A002000234FF08A0C074A10B4074808
:203EC00013700749074A084C80F800C00B70136023605DF8044B7047F62B0020F72B0020E3
:203EE000F82B0020E80A0020EC0A00202DE9F8432D4D2B78F3B92D4E3378BBB12C4C2D49BD
:203F00002278013B02EB4200013202F01F022270DBB201EB800211F820703370D2E901844D
:203F20005CB1812F1DD0A27BD2071CD428781844BDE8F883FFF756FFDDE71F4A146854B9D4
:203F4000F4E7A37BD90704D5424639462046FFF72DFF246814B32B78002BF2D0FFF742FF06
:203F6000EFE70122A273D4F80890B9F1000FDDD00223A373114B424639461C6004F10C004E
:203F8000C8470238012805D9832F03D001223378A273CBE721462046FFF79CFE337828780F
:203FA0001844BDE8F88300BFF92B0020F82B0020F62B002068090020EC0A0020E80A002045
:203FC000024A034B10781B7818447047F82B0020F92B002030B40F4C94F800C0BCF1200F2B
:203FE00015D005460C4B00201B7863440CF1010C84F800C003F01F03084C03EB430304F801
:20400000231004EB8303C3E9012530BC7047012030BC7047F82B0020F62B002068090020AA
:2040200038B5837B034CDB07256801D5FFF7BEFE256038BDE80A002018B1837B013B012B94
:2040400000D970470123024AC3731370704700BFF92B0020FDF72CB910B5044607F0B0FB63
:2040600001462046FDF72CF9BDE810400A20FDF71FB900BF08B50448FEF7EEF8BDE80840FF
:204080000248FEF7E9B800BFE4010020D80100200148FEF73DB900BFD801002038B50F4853
:2040A000FEF7ECF8044680B10D48FEF7E7F80546206060B1FFF7B2FC034605F19A0105F133
:2040C0008200A5F88030FFF74BFD204638BD21460248FEF7EFF82C46F7E700BFD8010020E3
:2040E000E4010020006800F19A018230FFF738BD10B5044607482146FEF7FCF800B910BDF6
:2041000021680548FEF7D6F82146BDE810400148FEF7D0B8D8010020E401002010B50446D7
:2041200009482146FEF7E6F800B910BD2468B4F880102046FFF73CFC04F19A0104F182000B
:20414000BDE81040FFF72EBDD801002008B5FCF789F980B208BD00BFFCF752B94FF05023F8
:20416000D3F80034704700BF0023013A0160027143718371704700BF8179427990F804C079
:20418000521A12EA0C0F034606D000684A1C02EA0C02405C9A7170474FF0FF30704700BF73
:2041A00070B5134E337803B170BD04460D4605F067FA034684B10F4B2068616803C395B1C5
:2041C0000D4BA868E96803C301220021094805F095FB0123337070BD59689A68054C0068D6
:2041E000DB680FC4EBE70549024805F047FDEBE7FA2B00207010002078100020102A00204D
:20420000002110B5084682B00C46FFF7C9FF174B03F160011A7E1AB193F82A20012A15D029
:2042200020338B42F6D1204605F0D2FA04B9C8B102F056F94023024621460020009300F044
:204240009DFB00F017FA002002B010BD9A7EFE2A02D003F11A04E3E7DA7E802AE0D003F192
:204260001A04DDE74FF0FF30EEE700BFC0210020054B187B30B1B3F84A00DB8AC01AB0FAB7
:2042800080F04009704700BF801000202DE9F04716461B4CDFF86C9080460D464FF4B072DE
:2042A000002120461F469DF824A007F037FAB9F82030B34205D152463846089902F06AF9B9
:2042C00018B900263046BDE8F08701264FF0FF33F0224FF2F00184F80D80A4F85A10E27315
:2042E0002673A364A4F84C30C4F8089028686968AA68EB681C340FC43046BDE8F08700BF78
:20430000801000202002002010B5044690F8510094F8503082B0228A0190207E21460093B0
:2043200004F13C03FFF7B2FFF8B100220120104B617DB4F81AC09973616DA3F810C0196039
:20434000216A5961217F9974617F1976E18B83F85E205983A17D83F85610217D83F855103E
:20436000E17D83F8572083F8541002B010BD00BF801000202DE9F0414C4DB5F84A4002F017
:2043800005F895F85E30032B5DD0FFF771FF064620B1AB68BDE8F041DB691847D5F844800A
:2043A00001F044FC01F0DCFB686C01F0A7FB03463F4FA5F84A303868FEF7CCF804460028E4
:2043C00038D1B8F1000F55D0B5F84A30B5F848209A4201D9A5F848304FF6FF72B5F84C3011
:2043E00093420AD0B5F84A10914206D0CB1A002BB8BF5B42B3F5007F3FDC95F85D30002BB3
:20440000C7D06B6C002B3ED0B8F1000F45D001F007FE002385F85D30AB68BDE8F041DB69D8
:204420001847236813B321463868FEF75BF804460028C6D0204601F061FBB5F84A308342D6
:20444000EFD82660EFE7002001F08AFB4FF6FF739C42A5F84A309CD0164801F0B5FD01F099
:204460002BFFAB68BDE8F041DB691847FCF762FA2060D8E7B5F84A30ACE70F48A5F84C10EE
:2044800001F0A2FDB9E70B4885F85E3001F09CFD01F078FD01F010FFBBE70123074885F80C
:2044A0005E3001F091FD01F0F3FEB0E7801000204402002024D5000034D500004CD500003D
:2044C000094A137B73B110B4044640B102F11C0CBCE80F00206001206160A260E3605DF80E
:2044E000044B7047184670478010002010B5FFF7BFFE134C78B994F95A2094F85A30002AA2
:2045000003F10103B4BFDBB203F07F03002084F85A3001F0A1F8FDF71BFD01F04BFB05F046
:20452000D3FF01F011FF94F841305B0602D40023237310BD034802F009F80023237310BD2A
:2045400080100020AC1000200322024B83F85E2001F026BF8010002008B50F4B1A7B8AB1F7
:204560001A6D511C0ED082420DD9101AB0F5967F186507D2586C28B101F0CCFABDE8084044
:2045800000F010BF08BD00210322196583F85E20BDE8084001F004BF8010002010B5084C70
:2045A000237B5BB194F840200146D20804F11C0006F092FFB0FA80F0400910BD184610BD51
:2045C0008010002010B5FFF753FE88B1F021114C94F9542094F85430002A03F10103227BA8
:2045E000B4BFDBB203F07F0384F85430E17302B910BDFFF73DFE08B984F85E00A3681B6810
:20460000984701F0D7FA044801F0DEFCBDE8104001F0C6BE8010002058D5000010B50A4C80
:20462000237B03B910BDFFF723FE08B984F85E00A3681B68984701F0BDFA044801F0C4FC8F
:20464000BDE8104001F0ACBE8010002058D50000074B9A7B187B1AB9003818BF0120704779
:2046600028B193F85E00012894BF00200120704780100020024B1B7B03B97047FFF77ABED0
:20468000801000202DE9F041754D06462B7B0C462BB16A7B237E9A4209D0BDE8F081FFF7FA
:2046A000E7FD98B12B7B002BF3D1BDE8F081102221466C4806F010FF0028EED1628AEB8A88
:2046C0009A4216D2BDE8F041FFF754BE637D012BE3D82046FFF718FE0028DED0AB681B6893
:2046E0009847614801F070FC01F09AFD01F0E4FDD8E7E17D95F8540001F0D4FE002841D180
:204700004FF6FF73628A9A4204D095F85930013385F8593095F85410E07D01F0C3FE48B1FD
:20472000B5F84A20EB8A9A4258D0FFF7A1FD0746002869D022460121304600F017FEE8B109
:20474000304601F065FA0746002844D090F80680304601F05DFA002847D0638A8380637E2E
:2047600083712B6DB3B96B8BC3EB03135B012B65AB7B1BB117B16B6C9F4218D02B7B002B70
:204780008BD09FE7628AEB8A9A42F7D1374801F01BFCF3E7002FF1D06B6C9F42EED16B8B75
:2047A000AA7BC3EB03135B012B65002AE6D04146607E01F077FE0028E0D095F90F20EB7B7E
:2047C000002A03F10103B4BFDBB203F07F03EB7301F026FCD2E74FF0F008B9E7E37D244875
:2047E00085F85430FFF7EEFEA4E7304604F03EFE0028C3D01F4B0146012218682346FDF739
:20480000D5FE0028A9D1B9E701F09EFD384601F0A7F9637D012B12D92B7B002B8AD0FFF7D0
:2048200027FD08B985F85E00AB681B68984701F0C1F9114801F0C8FB01F0B2FD7AE7204624
:20484000FFF762FD0028E7D0AB681B689847064801F0BAFB01F0E4FC01F02EFDDCE700BF4C
:20486000801000209C10002068D5000070D500008CD500004402002058D5000011B1084834
:2048800001F0A2BB10B50A460321044600F06EFD20B12046BDE8104000F0A0BD10BD00BFE7
:2048A000A8D5000038B5054691F823000C46C0B1FF2816BF0D4B4FF0FF335B8B0A4618BF02
:2048C00043432946002005F05BFD18B194F92530002B00DB38BD2846218CBDE8384001F0A7
:2048E000B9BB0A46294605F027FDEFE78010002070B5154D0E4695F85B10044601F0D2FD09
:2049000008B185F85B4095F85A30A34200D070BD95F85E3076B2012B07D001F0B9FB002EB4
:20492000F5DA032385F85E3070BD002E02DA01F0AFFBF6E70223054885F85E3001F044FB1B
:20494000BDE8704001F0A4BB80100020B8D5000070B505460E461C463AB924B11DB1064B68
:20496000AE801B7B23B9012070BD01F047FBF4E7FFF700FD012070BD801000202DE9F047FD
:20498000284C82B094F80CC005460E46174698469DF828A0BCF1000F0AD0102204F11C0009
:2049A00006F09AFD80B34FF0F009FFF79FFD01E04FF0F0093B46314628460122CDE9008A8B
:2049C000FFF764FC40F6084200231E2101202282154A80252176A3743C21626184F8553007
:2049E0000222A4F856304FF0FF33A0730F4884F85490A4F84A50618384F85E20236502B0E8
:204A0000BDE8F04701F0E0BA94F9543094F85490002B09F10109B4BF5FFA89F909F07F09B0
:204A2000C3E700BF8010002000048000C4D500004FF4B0720021014806F070BE801000209D
:204A4000104A907918B992F82A10632901D00120704792F82910A1B992F82B30042B0FD118
:204A6000094B187B68B1587B92F82DC0844507D1B3F84A3001205BBAD38582F82DC070477A
:204A800008467047082500208010002070B51B4905462B2209881A4806F0FEF90446194868
:204AA000FFF77CFD10B90024204670BD1649002005F0F2FB13490646002005F0EDFB14B13C
:204AC000A278032A06D00028EDD0002EEBD04369B342E8D14FF0000C48F2FE0E0124094E84
:204AE0000FCEA5F802C0AA60EB60A5F800E0A5F804C0A5F806C0204670BD00BFEA2B00205D
:204B000008250020202500209C1000202DE9F0432B4B2B2219882B4885B006F0BDF90446CC
:204B200010B18378032B03D0002005B0BDE8F083C278002A40D06378017901336679DB0014
:204B4000DBB201F00F05A3EB161309092B44C1F11000183B93FBF0F30133DBB29A42E3D8AD
:204B6000012A18BF0D469B1ADBB203FB00F0154F0830E31B103303445B1BB3F5A06FD3D8B4
:204B8000E846261805F1180CC5F1100907F118030FCB88E80F0031464A4607EB0C0006F059
:204BA000CBFC4A46304608EB050106F0C5FCE3780120013BE370B8E7012005B0BDE8F083E0
:204BC000EA2B00200825002043788BBB40F263432DE9F047425A44189A4226D11A4D2B7B55
:204BE0001BB36A7BE3789A421FD1A67816F020081BD1164B0C20D3F80090A788FFF70CF892
:204C000001464846FDF766FDA2787FBAF609B5F84A10BFB2C2F380130CD0B9420ED9424610
:204C20003946BDE8F047FFF793BE0020BDE8F08700207047B94201D83246F1E742F0400227
:204C4000A2700122ECE700BF80100020440200202DE9F0412A4F2B4E82B0012330463988B1
:204C60000DF1070206F0AAF8002841D09DF80730062B3DD0044606F1060814E013B9A37828
:204C8000632B16D03988A31BC91A204600230DF1070289B206F092F8044648B39DF80730E2
:204CA0008046062B24D0112B22D03A2B20D02B2BE4D1237888F8003065780135ED00684286
:204CC00006F048F8C0B139883046283989B206F06BF83A88A31B9A420EDDD21A20466119EE
:204CE00006F0A0FC98F80030062B8DF80730DAD1012002B0BDE8F081002002B0BDE8F081F9
:204D0000EA2B0020082500202DE9F04FDFF8908289B098F80C304BB348F2FE039A4C228B02
:204D20009A4223D0237EFF2B20D0FFF7A1FA054670B904F1080004F04BFD20B1934BE279A1
:204D40001B799A4217D009B0BDE8F04FFFF778BE04F11807FFF77CFF3846FFF71FFC28B146
:204D60003946002005F098FA064658BB0125284609B0BDE8F08F864E3288B2F59F6FF6D82C
:204D800004F12801283A04F1300006F04BFC40F26342A37998F80D1084F82830B8F84A3093
:204DA000C4F829505BBA84F82D10A571E3856285082005F0CFFF31882046283989B205F0F0
:204DC000F3FFC0E7002008F11C0105F065FA0190002847D03946002005F088FA002841D091
:204DE000D6F814A0BAF1000F00F0BC80019B534500F0C0804FF000090F25664B0DF11008A4
:204E00009B69039602935146029B40469847DFF894E12946C34670464246002312F8016B2C
:204E200010F801CFB44502D10133102BF6D19D420CDADAF814A009F10103DBB2BAF1000F08
:204E400014D0019A524511D09946DCE700211BF8013B1EF8012F9A4206D101311029F6D11E
:204E60000D46E6E7002582E7CDB2E2E7C1F1100AC5F118081AFB09885FFA88F918F0070803
:204E80001FBFC8F108085FFA88F8C1445FFA89F99B464B46039E3E4A02931288D118B1F559
:204EA000A06FDFDC3C49283A08882830211848442044039106F0B6FB03994A46084600215A
:204EC00006F02CFC2B22029BA179A271B3F1080248BF03F1FF320323D21084F829202D4A7F
:204EE00084F82BB0D2F818B005EB051284F82C204FEA081284F82A3084F82810274B84F82F
:204F00002D20A9EB08040DF110084544CDF80890C146DDF804801C447269A4EB0A0490459B
:204F20000AD031464846D84752462946204606F003FB7669002EEFD1C846DDF80890314653
:204F40004046D84798E80F0087E80F00484605F001FF0F4B0C4819880125283989B205F016
:204F600023FF04E7D34608230F254FF0010AD846994690E708234FF0000B0F254FF0010AFB
:204F80009946D84687E700BF08250020C0210020EA2B0020E8D50000E82B002030250020FF
:204FA000801000201F25002008B50C4A137B43B10B4B0C491B88507B2C335A5C0B449042F9
:204FC00003D0BDE8084005F0ABBED9789878FFF78FFCBDE8084005F0A3BE00BF801000201F
:204FE000E82B0020082500202DE9F0438FB02622002104A806F092FB3C4A3D4B11883D4CE1
:2050000001F12C02D618207BD25C8DF8322010B1607B904204D005F083FE0FB0BDE8F08353
:205020000022E846344875780788CDE904222C3F7F1ACDE90622217EF27808338DF833105E
:20504000ADF830200FCB88E80F006B06FFB28DF835502ED40424BC4222DA4FF0000903E087
:2050600001252C44BC421BDA335D3219002BF7D05578052B05F1020525D1D278211D8DF8DD
:2050800034200732D208314408A82C44CDE90999CDF82090CDF82C9006F04EFABC42E3DBCC
:2050A000404604A9FFF7FEFB05F03AFE0FB0BDE8F083102204F11C00311D06F00DFA002814
:2050C000A9D11424C7E7062BCBD15379132D8DF83330C6DDA21DB318B05859689A68DB6874
:2050E0000DF1100CACE80F00BBE700BFE82B00200825002080100020EA2B002008B5084B1D
:205100001B7B4BB10748017E0830A1F1FF01B1FA81F14909FFF7B2FBBDE8084005F000BEB3
:205120008010002008250020F0B59DB0402200210CA806F0F3FA3C2340F608441E21012025
:20514000864D874A2D88ADF83230864B12880D932C3D854BAD1A2C32ADF82E40D4188DF802
:2051600031106188D25C49BAADF8261061788DF82C208DF82B102279617901AF8DF82D10A8
:2051800022F07F018DF828100833C2F3C20102F00702ADF824008DF829108DF82A20EDB21D
:2051A0000FCB87E80F00E168A0682269636905AE182D0FC6C8BF182140F3CA80625C1AB954
:2051C00005F0AEFD1DB0F0BD6318587802304618AE42F5DC023A062AF2D80FF2080C5CF87A
:2051E00022F000BFF55200009F5200004F520000C1510000C1510000C1510000015200007C
:205200002028DDD15A7A6018007A120442EA0062D87A103104EB010E02436058997A0DF18F
:20522000500C42EA012218929A78DB788DF864208DF86530DEF80410DEF80820DEF80C3097
:20524000ACE80F00AE4280F283803146B6E71028B6D121448879DA7942EA0022ADF8342073
:20526000087A5A7A42EA0022ADF83620887B8A7AD97A41EA0221DA7BADF8241042EA00226B
:20528000ADF83220DA788DF82E201A798DF82F205A795B7B8DF830208DF83130D2E708283E
:2052A0008EDD5A7904EB010C9CF804C093F807E0120442EA0C6242EA0E0293F806E093F802
:2052C00002C042EA0E22DB7812920CF10702D2108DF84D30D31D83428DF84CC0BFF670AFB5
:2052E000BCF1800F3FF66CAF083121440EA806F023F9A7E705287FF763AF1A79597993F889
:2053000003C08DF86C10D10941EA4C0198788DF86910C2F3011102F00F028DF868008DF82D
:205320006A108DF86B2000288CD0072809D002287FF446AF9A79DB798DF86E208DF86F3027
:2053400080E79A79DB7943EA0223ADF86E3079E7384605A9FFF796F932E700BFEA2B0020CC
:20536000E82B00200004800008250020F0B583B007460D46164604F055F8044610B12046A3
:2053800003B0F0BD0C20FEF747FC22460146012338460196009503F0D7FF0446204603B0A0
:2053A000F0BD00BF70B50446FFF764F90022084B084D198808482C314B195A70944218BFCC
:2053C00020464A550223BDE870409B2104F0ACBDE82B002008250020A01200202DE9F04F8E
:2053E0008BB00646FFF746F901F004F810B1002E00F02381924B934D1B88934A697B2C3301
:205400009C18995495F85430637000F0F3FF002866D1B5F84A301A0AA270E37095F8553004
:205420000021002B14BF6FF07F02002295F85630A87B03F0070343EAC0031343834F23716C
:20544000EB7BA1716371E1710FCFA060E1602261636100F0CFFF002846D12B78002B43D06A
:2054600006220220697895F802C0EF786276CA0142EA0C123A434908072BA3762076227716
:20548000E17600F0CF80022B40F0D780AA794FF0260CA2772722114620226377EB79E3779B
:2054A00028234FF029094FF02B0ACDE907392A234FF02F0BCDE9053A2E232D20CDE9033B79
:2054C0002C2330274FF0250E4FF024084FF023094FF0220A4FF0210BCDE90103099226E0AD
:2054E000FF23A370E37099E71F232120194620232327CDE9073022234FF0270ECDE905379D
:2055000026234FF02508CDE9033E24231822CDE901834FF01E0C28274FF01D0E4FF01C089F
:205520004FF01B094FF01A0A4FF0190B09920420A0540E22002304F80B202A7C04F80A3039
:2055400004F809206A7CB5F814A004F80820AA7CE88A04F80E204FEA1A2E04F80CE004F894
:2055600001A007994FEA102C04F801C00899AA686054108C05994FEA102804F8018006998A
:2055800095F818E0605402996A8B63540199100A04F801E0039995F840C0605404996254CA
:2055A000BCF1000F0FD100F025FF18B9284B002E08BF1E463B4601229B2130460BB0BDE868
:2055C000F04F04F0B1BC0822E2551E270999E86B62185774070E1775177695F84180C0F31C
:2055E00007475775577601F1200EC0F30727194DC0B282F812C097759776D075D07682F881
:20560000138004EB0E0C01F11C023031A3500F460FCD44F80E00CCF80410CCF80820CCF887
:205620000C30C0E7EB884FF0260CE3771B0AA377272320221946607732E70BB0BDE8F08F50
:20564000E82B002080100020082500209C100020A0120020AC1000202DE9F04F81B00446D0
:2056600000F03EFF384E0746706C00F053FA0546FFF700F8337B002B63D0716C002960D096
:20568000002F5ED0002D5CD0B37B002B59D00021002C0CBF8A464FF0800A4FF005094FF095
:2056A000120880224FF0060E1420284B96F80DB0B3F800C0264B0CF12C0C0CF803B09C4441
:2056C00096F85A308CF807208CF802108CF806108CF801A08CF804908CF805808CF80330DA
:2056E000FB68D7F80090D7F8048006F11C02BE688CF819008CF81A108CF81B108CF81C10B0
:20570000CCF8089003CACCF80C80CCF81E00CCF81060CCF814308CF818E08CF81D40CCF8D1
:205720002210AB68E968A2F10800CCF826300222CCF82A102E239B2101B0BDE8F04F04F066
:20574000F3BB01B0BDE8F08F80100020E82B00200825002030B583B00D4614460190FEF74B
:2057600089FF0D4A0D49B2F800C000220C4B497B0CF12C0C0CF803109C448CF80120042355
:2057800003229B2101988CF802508CF8034003B0BDE8304004F0C8BBE82B002080100020D0
:2057A0000825002008B5074804F014FB064804F011FB064804F00EFBBDE80840044804F0C7
:2057C00009BB00BF1402002008020020FC010020F0010020704700BF0022014B1A70704793
:2057E0008010002008B500F0A1F908B1808808BD4FF6FF7008BD00BFB0B138B5044685884F
:2058000000F094F968B14FF6FE7283882B44934207D8204600F08AF948B18088284480B297
:2058200038BD4FF6FF7038BD4FF6FF7070474FF6FF70F3E770B50646FFF7DEFF0B4B0446ED
:20584000586CFFF7D9FF336804F1BF05044623B9A542B4BF0020012070BDFBF76BF8336884
:20586000C01AB0F5963FF3D9002070BD8010002008B500F05BF928B18088B0F5007F8CBFBA
:205880000020012008BD00BF10B50446FFF7B4FF034620461C4600F049F940B18388B3F5A4
:2058A000007F05D8B4F5004F8CBF0020012010BD002010BDF8B50D4678B30446FFF79CFF48
:2058C0000646204600F032F938B38388B3F5007F23D8A5B32846FFF78FFF0746284600F0EE
:2058E00025F960B38388B3F5007F28D8B7F5004F25D8B6F5004F20D81A4E736CA3422AD035
:205900009D4221D02046FFF777FF06462846FFF773FF864211D22046F8BD9DB12846FFF74B
:205920006BFF0446284600F001F958B18388B3F5007F07D8B4F5004F04D82846F8BDB6F59F
:20594000004FE8D90020F8BD2046FFF773FF0028D8D02846F2E72846FFF76CFF0028DAD1DB
:20596000736CCDE78010002018B370B5144B04468688DD8A00F0DAF8C0B14FF6FE728388E3
:205980003344934212D8204600F0D0F8A0B18088304482B24FF6FF71A3885819884228BFB0
:2059A0000846904238BF104680B270BD4FF6FF72F0E74FF6FF7070474FF6FF70E8E700BFE1
:2059C0008010002070B5054608460C4600F08EF898B10B4B9B685B6998470646284600F0A2
:2059E00085F838B1064B9B685B699847B04201D2204670BD2C46204670BD4FF6FF76EDE75F
:205A00008010002008B50C4B0146D3F82821824204BF0022C3F82821D3F80421824204BF43
:205A20000022C3F80421054B1868FCF76FFEBDE8084000F0B5BC00BF801000204402002011
:205A40002DE9F843274D00262B7B002B3CD0264F81463868FCF77EFD0446002834D04FF679
:205A6000FF780DE0B5F848301344434528BF4346984213DD21463868FCF734FD044618B344
:205A8000AB685B69002BF5D0204698474045F1D0EB8A8342EED8AA8A002AE3D1AB68204629
:205AA000DB6898470028E5D0B9F1000F0FD1AB68214630469B699847214606463868FCF735
:205AC00011FD04460028DBD13046BDE8F88321463868FCF781FEFCF76BF9FCF76FF90028B1
:205AE000E5D1C7E78010002044020020024B01461868FCF7EFBD00BF4402002020B1044B34
:205B00009B685B6903B118474FF6FF70704700BF8010002008B5044B01461868FCF75CFEB1
:205B2000BDE8084003F09CBC4402002008B5044B01461868FCF750FEBDE80840FCF738B9E2
:205B40004402002008B5054B01461868FCF744FEFCF72EF9BDE80840FCF730B9440200208D
:205B600070B5124D696C81421FD00446104E3068FCF716FE21463068FCF7F6FD696C306881
:205B8000FCF72AFE03F06CFC03F0B2FC03F092FC21463068FCF720FE03F062FC002103F0F8
:205BA000C3FC01236C6485F85D3070BD8010002044020020F8B5144E0020FFF7D1FF306858
:205BC000FCF7C8FCD8B104460027104DD5F828312146A342D5F8043108BFC5F8287130688E
:205BE000A34208BFC5F80471FCF790FD00F0D8FB21463068FCF776FC04460028E6D1BDE852
:205C0000F840FEF737BD00BF440200208010002008B503F007FC03F0FFFB034B01461868D9
:205C2000BDE80840FCF756BD4402002038B5FEF71FFB20BB0546FFF703FF0446F8B1144B9F
:205C400001461868FCF7C8FDFCF7B2F8FCF7B6F868B9104DD5F82831A3B16B6CA34209D0FA
:205C60000120FFF7EDFE38B10446204638BD094BC3F82851204638BD6B6C002BFAD10024C0
:205C8000204638BDC5F8284100F0ECFAE5E700BF4402002080100020024B03491868FCF700
:205CA000FDBB00BF44020020055A000070B58024104D114995F857309C40A1FB0434A309B8
:205CC0002B66FEF743FA0123E40904FB00F00B49A5F85830A1FB00212A6E04EBD131521AD6
:205CE0002A6605F1A4000023BDE87040044AFBF75FBA00BF80100020D34D621001800080A7
:205D0000AD5D000008B5054BD3F80401FFF702FF18B1BDE80840FFF761BB08BD8010002068
:205D200070B5144D95F85C30287E013385F85C30FFF792FC95F85C30042B16D8FEF706FA32
:205D400001460D4C05F1E400A4FB014CBDE870404FEA5C2C0CEB8C0CA1EBCC1101F5A071C8
:205D60000023064A89B2FBF723BA0548BDE87040FEF754BC80100020CDCCCCCC215D0000A0
:205D8000D0D500000348002290F83C1100F59670FFF7E0BC80100020024B1B7B03B9704789
:205DA000FEF7A4BB80100020FEF764BC10B5FEF74FFC58B3164C94F858306BB9637C217CA4
:205DC00094F857200B449A42BCBF013284F85720BDE81040FFF76ABFFEF74AFA28B9A37CA7
:205DE0001BB194F859209A4206D2B4F84A300020A4F84C30FFF7F2FA0023216E84F8583028
:205E0000044A0548BDE81040FBF7D2B910BD00BF80100020AD5D00002411002038B50123C9
:205E2000144C154D84F85C30FEF790F90146A5FB015C4FEA5C2C0CEB8C0CA1EBCC1101F527
:205E4000A07104F1E40000230C4A89B2FBF7B0F994F95A2094F85A30002A03F10103B4BF57
:205E6000DBB203F07F03207E84F85A30BDE83840FFF7F2BB80100020CDCCCCCC215D00005D
:205E800010B5204C237B53B91F48FBF7F3F9F8B9FEF7F0FBBDE810401C48FBF7AFB93C2042
:205EA000FEF75AFB3C2004F0CFFA237B002BEBD0636C002BE8D04FF6FF73B4F84A209A42A0
:205EC000E2D0FEF7D7FBBDE810401048FBF796B9FEF73CF901460E4C0B48A4FB01C4E40A4B
:205EE000C4EB0414A1EB042101F5F0610023094A89B2FBF75DF9FEF7BDFBBDE810400348FD
:205F0000FBF77CB980100020601200208012002089888888195F000010B5FEF7A9F950B968
:205F2000144B1A7B42B15A6C32B14FF6FF72B3F84A30934200D010BD0020FFF733FA0E48EB
:205F4000FBF798F90028F6D0FEF700F901460B4C0023A4FB014CBDE810404FEADC2CCCEB48
:205F60000C1CA1EB0C2101F5F061054A024889B2FBF71EB9801000206012002089888888F9
:205F8000195F000010B50D48FBF774F900B910BDFEF7DCF801460A4C0023A4FB014CBDE870
:205FA00010404FEADC2CCCEB0C1CA1EB0C2101F5F061044A014889B2FBF7FAB86012002069
:205FC00089888888195F000010B5FEF741FB48B1094C94F8573013B1627C9A4202D200F08F
:205FE00009FA00B110BD637C84F8590084F85730BDE81040FFF75ABE8010002006490B7BE1
:2060000003B970470023C1F80401044A01F1C4001946FBF7CDB800BF80100020055D000081
:2060200010B50A4C237B0BB1A37B03B910BDFEF78DF80146C1F3080104F1E4000023BDE825
:206040001040034A01F58071FBF7B2B8801000201D5E000010B50C4C227B02B910BD0346AA
:206060008C469A6859680068DB6804F5967EAEE80F000023A4F83CC10EF104001946BDE86B
:206080001040024AFBF794B880100020855D0000114B1A7B12B1197EFF2900D1704710B5D4
:2060A0005C8B01FB04F4FEF751F80C4BE401A3FB00231B0BC3EB0313A0EB432000F5F050BD
:2060C00080B2844288BF241A2146BDE810400023034A0448FBF76CB8801000208988888844
:2060E0001D5E0000641100202DE9F041334CFAF721FC237B002B39D0D4F8285115B1284671
:20610000BDE8F0810746606C18B1FFF71BFD002852D0FEF71BF845F2555200EB800303EBED
:20612000031303EB032300EB430080B2244E904230681FD9FCF70EFA0446B8B14FF6FF7798
:2061400006E021463068FCF7CDF904460028D6D02046FFF7F7FC0028F3D12046FFF7CEFC28
:206160000DB1B842EDD225460746EAE700252846BDE8F081FCF7EEF904460028F6D04FF025
:20618000000806E021463068FCF7ACF904460028B5D02046FFF7D6FC0028F3D12046FFF70D
:2061A000C5FC0028EED0036815B1FA1A4245E9D92546A7EB0308E5E7656CA0E780100020CE
:2061C0004402002070B5FFF78FFF0546FFF7A2FC30B104462846FFF7A9FC2046FFF7FEF84B
:2061E0000C4C237B03B970BDFDF7B0FF01464FF43455094E04F584700C0AA6FB046405FBA7
:206200001411BDE8704001F5B4510023034A89B2FAF7CEBF801000200B5BB005C5610000EF
:2062200070B50D4C237B03B970BDFDF78FFF01464FF4345C094D04F584700C0AA5FB04546C
:206240000CFB1411BDE8704001F5B4510023044A89B2FAF7ADBF00BF801000200B5BB0052F
:20626000C561000010B5084C237B03B910BDFDF76DFF0146002304F58470044AC1F30801F6
:20628000BDE81040FAF794BF80100020C561000010B5084C237B03B910BD04F18400FAF745
:2062A000E9FF0028F8D104F18400BDE81040FAF7C7BF00BF8010002010B50A4C237B03B93C
:2062C00010BD04F18400FAF7D5FF0028F8D004F184000023BDE810404FF41641024AFAF75B
:2062E00067BF00BF80100020995D000010B5114800234FF4F051104AFAF75AFF0F48FAF762
:20630000B9FF00B910BDFDF721FF01460C4C0023A4FB014CBDE810404FEADC2CCCEB0C1C68
:20632000A1EB0C2101F5F061064A044889B2FAF73FBF00BF80120020815E000060120020B5
:2063400089888888195F000010B50F4C2046FAF777FF04F12000FAF773FF04F14000FAF719
:206360006FFF04F16000FAF76BFF04F18000FAF767FF04F1A400FAF763FF04F1DC00BDE8D1
:206380001040FAF75DBF00BFE41000200348037B03B970476430FAF753BF00BF801000208B
:2063A0000448037B03B970470023034A19466430FAF7FEBE80100020A95D0000044B187BF8
:2063C00020B193F85E00003818BF0120704700BF80100020054B187B30B193F85E00A0F16F
:2063E0000200B0FA80F04009704700BF80100020704700BF014B1878704700BFFB2B002004
:2064000008B540F2FF2100234FF0D0520948C0E90013C0E9023203F033FAFEF709FBFFF7F0
:206420003BFCFFF763FFFFF7BDF9BDE8084003F0F9BF00BFA012002010B50A4C237B012B13
:2064400000D010BDFFF752FB0028FAD0D4F82831984204BF0023C4F82831BDE81040FFF785
:206460009FBF00BF80100020034698B10A4671B14FF0010C10B4094C03CC18605960D168AD
:2064800012699960DA6060465DF8044B70478C466046704784466046704700BF9C1000206C
:2064A000704700BF7F2801DD7F290EDD884206DC13DA081A7028D4BF002001207047401A16
:2064C0000F28CCBF00200120704701F58071081A1028D4BF0020012070470020704700BFA0
:2064E0002DE9F041174F3A7B12B197F84020F2B9904617460026144C04F1600514F8023C80
:2065000013B1237C012B05D02034A542F6D13046BDE8F0812378FE2B0DD08FB142462146B9
:20652000384604F0D9FF002808BF2646ECE74FEAD2082C37DEE76378802BE5D0002FEDD180
:206540002646E1E780100020DA2100200146002300B50A7D85B00732D2086846CDE90033B7
:20656000CDE9023304F0E8FF6846084903F086FB684603F02DF908B103F026F90022044BDF
:2065800083F8402005B05DF804FB00BF102A002080100020A8B3F0B54B1E7F2B0C4685B0B4
:2065A00006D812F04001154605D1084605B0F0BD002005B0F0BD0026154BE71D0146C3E9DA
:2065C00000661846C3E90266FA0804F0B5FF034604754FF0FF340146FA10457568461C61CF
:2065E000CDE90066CDE9026604F0A6FF6846094903F044FB684603F0EBF818B1012005B073
:20660000F0BD704701460122684603F077F9F5E7AC100020102A0020002210B44FF4004020
:206620004FF48034114B1249C3F84021D3F84021D3F8102522F00F0242F00802C3F8102515
:20664000D3F8082542F00302C3F80825D3F8042522F00302C3F80425C3F80443C1F88001F8
:20666000086001221A605DF8044B704700F0005000E100E0014BC3F84005704700F0005076
:206680000122024B5A64D3F84405704700F00050054BD3F8402102B970470022C3F8402195
:2066A000D3F8403100F004B800F00050FFF7B4BF10B5084C206858B1D0E901310022226010
:2066C0009847236823B1BDE810401868FFF7D2BF10BD00BFB01200202DE9F04104880646F3
:2066E000752C07D07C2C37D0A4B1002303203380BDE8F081DFF8D0802E4D98F800202E4F40
:2067000000233B602B6012B32C4CE256002A41DB2B6832E0FDF794FB264D294F2C60294B62
:206720003A681870002A43D023469846234C04F8038093680021802098472B68013357F80C
:2067400023202B60002AF2D1DBB21F4A1370752333800120BDE8F0811A4B1B788B4216D1D7
:20676000144D164CDFF86080134F3A682B6801323A60E25C02F07F02E25498F80020013370
:2067800093422B60C1DB3B68002BB9D1DFE70120BDE8F0810A4A002052F82320094B1978C2
:2067A000FDF718FC0028E0D17C23012033809FE71346CAE7B8120020B4120020A003002062
:2067C00054010020FD2B0020FC2B002070B504880646672C1BD0792C33D05CB300233380AD
:2067E000032070BD00251E4C1E49236809785A1C22601D4A2846D554FDF7ECFB1B4B2A46A0
:2068000085211868FDF7E6FB30B300232360184C134D06E00A28E5D00D28E3D02B687E2B3F
:2068200015DD2046FDF7A8FC431CF3D167233380012070BDFDF704FB0A4B094A1870146023
:20684000E5E7852901D0012070BD054CDDE7064A591C2960D054E4E779233380012070BDB0
:206860003C130020FE2B0020BC120020E80A00204013002008B5054905488022FDF774FC8F
:20688000BDE8084000210348FDF7E2BA481300204013002068020020014B024A1A607047CE
:2068A000C81300200100FD0310B51E4C0220A179FDF798F9A379112B19D0062B09D03A2B3C
:2068C00024D01E2B1DD0BDE8104000210120FDF789B9154B1B8828331A1951881B5B994266
:2068E00028BF1946BDE810400120FDF77BB9618D238D0120BDE81040994228BF1946FDF74B
:2069000071B9094B28341B88E15AEBE7064B28341B880120195BBDE8104049BA89B2FDF7E1
